{
  "address": "0x9fE46736679d2D9a65F0992F2272dE9f3c7fa6e0",
  "abi": [
    {
      "anonymous": false,
      "inputs": [
        {
          "indexed": false,
          "internalType": "uint8",
          "name": "version",
          "type": "uint8"
        }
      ],
      "name": "Initialized",
      "type": "event"
    },
    {
      "anonymous": false,
      "inputs": [
        {
          "indexed": true,
          "internalType": "address",
          "name": "previousOwner",
          "type": "address"
        },
        {
          "indexed": true,
          "internalType": "address",
          "name": "newOwner",
          "type": "address"
        }
      ],
      "name": "OwnershipTransferred",
      "type": "event"
    },
    {
      "anonymous": false,
      "inputs": [
        {
          "indexed": false,
          "internalType": "address",
          "name": "account",
          "type": "address"
        }
      ],
      "name": "Paused",
      "type": "event"
    },
    {
      "anonymous": false,
      "inputs": [
        {
          "indexed": false,
          "internalType": "address",
          "name": "account",
          "type": "address"
        }
      ],
      "name": "Unpaused",
      "type": "event"
    },
    {
      "inputs": [
        {
          "internalType": "address",
          "name": "account",
          "type": "address"
        }
      ],
      "name": "addManagerToWhitelist",
      "outputs": [],
      "stateMutability": "nonpayable",
      "type": "function"
    },
    {
      "inputs": [
        {
          "internalType": "address",
          "name": "from",
          "type": "address"
        },
        {
          "internalType": "address",
          "name": "to",
          "type": "address"
        },
        {
          "internalType": "uint256",
          "name": "amount",
          "type": "uint256"
        }
      ],
      "name": "appealTransfer",
      "outputs": [],
      "stateMutability": "nonpayable",
      "type": "function"
    },
    {
      "inputs": [
        {
          "internalType": "uint256",
          "name": "amount",
          "type": "uint256"
        }
      ],
      "name": "deposit",
      "outputs": [],
      "stateMutability": "nonpayable",
      "type": "function"
    },
    {
      "inputs": [
        {
          "internalType": "address",
          "name": "",
          "type": "address"
        }
      ],
      "name": "deposits",
      "outputs": [
        {
          "internalType": "uint256",
          "name": "",
          "type": "uint256"
        }
      ],
      "stateMutability": "view",
      "type": "function"
    },
    {
      "inputs": [
        {
          "internalType": "address",
          "name": "_token",
          "type": "address"
        }
      ],
      "name": "initialize",
      "outputs": [],
      "stateMutability": "nonpayable",
      "type": "function"
    },
    {
      "inputs": [
        {
          "internalType": "address",
          "name": "account",
          "type": "address"
        }
      ],
      "name": "isManagerWhitelisted",
      "outputs": [
        {
          "internalType": "bool",
          "name": "",
          "type": "bool"
        }
      ],
      "stateMutability": "view",
      "type": "function"
    },
    {
      "inputs": [
        {
          "internalType": "address",
          "name": "depositor",
          "type": "address"
        },
        {
          "internalType": "uint256",
          "name": "amount",
          "type": "uint256"
        }
      ],
      "name": "lock",
      "outputs": [],
      "stateMutability": "nonpayable",
      "type": "function"
    },
    {
      "inputs": [
        {
          "internalType": "address",
          "name": "",
          "type": "address"
        }
      ],
      "name": "lockedBalanceOf",
      "outputs": [
        {
          "internalType": "uint256",
          "name": "",
          "type": "uint256"
        }
      ],
      "stateMutability": "view",
      "type": "function"
    },
    {
      "inputs": [],
      "name": "owner",
      "outputs": [
        {
          "internalType": "address",
          "name": "",
          "type": "address"
        }
      ],
      "stateMutability": "view",
      "type": "function"
    },
    {
      "inputs": [],
      "name": "paused",
      "outputs": [
        {
          "internalType": "bool",
          "name": "",
          "type": "bool"
        }
      ],
      "stateMutability": "view",
      "type": "function"
    },
    {
      "inputs": [
        {
          "internalType": "address",
          "name": "account",
          "type": "address"
        }
      ],
      "name": "removeManagerFromWhitelist",
      "outputs": [],
      "stateMutability": "nonpayable",
      "type": "function"
    },
    {
      "inputs": [],
      "name": "renounceOwnership",
      "outputs": [],
      "stateMutability": "nonpayable",
      "type": "function"
    },
    {
      "inputs": [],
      "name": "token",
      "outputs": [
        {
          "internalType": "contract IERC20Upgradeable",
          "name": "",
          "type": "address"
        }
      ],
      "stateMutability": "view",
      "type": "function"
    },
    {
      "inputs": [
        {
          "internalType": "address",
          "name": "newOwner",
          "type": "address"
        }
      ],
      "name": "transferOwnership",
      "outputs": [],
      "stateMutability": "nonpayable",
      "type": "function"
    },
    {
      "inputs": [
        {
          "internalType": "address",
          "name": "depositor",
          "type": "address"
        },
        {
          "internalType": "uint256",
          "name": "amount",
          "type": "uint256"
        }
      ],
      "name": "unlock",
      "outputs": [],
      "stateMutability": "nonpayable",
      "type": "function"
    },
    {
      "inputs": [
        {
          "internalType": "address",
          "name": "account",
          "type": "address"
        }
      ],
      "name": "unlockedBalanceOf",
      "outputs": [
        {
          "internalType": "uint256",
          "name": "",
          "type": "uint256"
        }
      ],
      "stateMutability": "view",
      "type": "function"
    },
    {
      "inputs": [],
      "name": "whitelistedManagers",
      "outputs": [
        {
          "internalType": "address[]",
          "name": "",
          "type": "address[]"
        }
      ],
      "stateMutability": "view",
      "type": "function"
    },
    {
      "inputs": [
        {
          "internalType": "uint256",
          "name": "amount",
          "type": "uint256"
        }
      ],
      "name": "withdraw",
      "outputs": [],
      "stateMutability": "nonpayable",
      "type": "function"
    }
  ],
  "transactionHash": "0x433f705e29573255c1198313d6d0415869de45c623c8b24c440fba1379b01064",
  "args": [],
  "numDeployments": 1,
  "solcInputHash": "6259ee064c7d7cbf5f0072d14604d8cc",
  "bytecode": "0x608060405234801561001057600080fd5b50610f5b806100206000396000f3fe608060405234801561001057600080fd5b50600436106101165760003560e01c806384955c88116100a2578063c4d66de811610071578063c4d66de814610249578063e64b2afa1461025c578063f2fde38b1461026f578063fc0c546a14610282578063fc7e286d1461029557600080fd5b806384955c88146101eb5780638da5cb5b146101fe578063b6b55f2514610223578063b8d57ada1461023657600080fd5b80633efe134f116100e95780633efe134f1461018457806359355736146101975780635c975abb146101c5578063715018a6146101d05780637eee288d146101d857600080fd5b80630b289d271461011b5780631e101a3d14610139578063282d3fdf1461015c5780632e1a7d4d14610171575b600080fd5b6101236102b5565b6040516101309190610d4a565b60405180910390f35b61014c610147366004610db3565b6102c6565b6040519015158152602001610130565b61016f61016a366004610dce565b6102e8565b005b61016f61017f366004610df8565b610386565b61016f610192366004610e11565b610487565b6101b76101a5366004610db3565b60996020526000908152604090205481565b604051908152602001610130565b60655460ff1661014c565b61016f610607565b61016f6101e6366004610dce565b61061b565b6101b76101f9366004610db3565b610712565b6033546001600160a01b03165b6040516001600160a01b039091168152602001610130565b61016f610231366004610df8565b610740565b61016f610244366004610db3565b61080f565b61016f610257366004610db3565b61086c565b61016f61026a366004610db3565b61099c565b61016f61027d366004610db3565b610a03565b60975461020b906001600160a01b031681565b6101b76102a3366004610db3565b60986020526000908152604090205481565b60606102c1609a610a7c565b905090565b6001600160a01b0381166000908152609b602052604081205415155b92915050565b6102f0610a90565b6102f982610712565b81111560405180604001604052806018815260200177455843454544535f554e4c4f434b45445f42414c414e434560401b815250906103545760405162461bcd60e51b815260040161034b9190610e4d565b60405180910390fd5b506001600160a01b0382166000908152609960205260408120805483929061037d908490610eb1565b90915550505050565b61038e610a90565b61039733610712565b81111560405180604001604052806018815260200177455843454544535f554e4c4f434b45445f42414c414e434560401b815250906103e95760405162461bcd60e51b815260040161034b9190610e4d565b503360009081526098602052604081208054839290610409908490610ec4565b909155505060975460405163a9059cbb60e01b8152336004820152602481018390526001600160a01b039091169063a9059cbb906044016020604051808303816000875af115801561045f573d6000803e3d6000fd5b505050506040513d601f19601f820116820180604052508101906104839190610ed7565b5050565b610490336102c6565b6040518060400160405280600f81526020016e1393d517d5d2125511531254d51151608a1b815250906104d65760405162461bcd60e51b815260040161034b9190610e4d565b506104df610a90565b33600090815260986020908152604091829020548251808401909352600e83526d1253959053125117d05353d5539560921b918301919091528211156105385760405162461bcd60e51b815260040161034b9190610e4d565b506001600160a01b03831660009081526098602052604081208054839290610561908490610ec4565b90915550503360009081526099602052604081208054839290610585908490610ec4565b909155505060975460405163a9059cbb60e01b81526001600160a01b038481166004830152602482018490529091169063a9059cbb906044016020604051808303816000875af11580156105dd573d6000803e3d6000fd5b505050506040513d601f19601f820116820180604052508101906106019190610ed7565b50505050565b61060f610ad6565b6106196000610b30565b565b610624336102c6565b6040518060400160405280600f81526020016e1393d517d5d2125511531254d51151608a1b8152509061066a5760405162461bcd60e51b815260040161034b9190610e4d565b50610673610a90565b60996000836001600160a01b03166001600160a01b031681526020019081526020016000205481111560405180604001604052806016815260200175455843454544535f4c4f434b45445f42414c414e434560501b815250906106e95760405162461bcd60e51b815260040161034b9190610e4d565b506001600160a01b0382166000908152609960205260408120805483929061037d908490610ec4565b6001600160a01b03811660009081526099602090815260408083205460989092528220546102e29190610ec4565b610748610a90565b6097546040516323b872dd60e01b8152336004820152306024820152604481018390526001600160a01b03909116906323b872dd906064016020604051808303816000875af115801561079f573d6000803e3d6000fd5b505050506040513d601f19601f820116820180604052508101906107c39190610ed7565b5033600090815260986020526040812080548392906107e3908490610eb1565b90915550503360009081526099602052604081208054839290610807908490610eb1565b909155505050565b610817610ad6565b610822609a82610b82565b604051806040016040528060138152602001721053149150511657d5d2125511531254d51151606a1b815250906104835760405162461bcd60e51b815260040161034b9190610e4d565b600054610100900460ff161580801561088c5750600054600160ff909116105b806108a65750303b1580156108a6575060005460ff166001145b6109095760405162461bcd60e51b815260206004820152602e60248201527f496e697469616c697a61626c653a20636f6e747261637420697320616c72656160448201526d191e481a5b9a5d1a585b1a5e995960921b606482015260840161034b565b6000805460ff19166001179055801561092c576000805461ff0019166101001790555b609780546001600160a01b0319166001600160a01b038416179055610952609a33610b82565b508015610483576000805461ff0019169055604051600181527f7f26b83ff96e1f2b6a682f133852f6798a09c465da95921460cefb38474024989060200160405180910390a15050565b6109a4610ad6565b6109af609a82610b97565b6040518060400160405280601781526020017f414c52454144595f4e4f545f57484954454c4953544544000000000000000000815250906104835760405162461bcd60e51b815260040161034b9190610e4d565b610a0b610ad6565b6001600160a01b038116610a705760405162461bcd60e51b815260206004820152602660248201527f4f776e61626c653a206e6577206f776e657220697320746865207a65726f206160448201526564647265737360d01b606482015260840161034b565b610a7981610b30565b50565b60606000610a8983610bac565b9392505050565b60655460ff16156106195760405162461bcd60e51b815260206004820152601060248201526f14185d5cd8589b194e881c185d5cd95960821b604482015260640161034b565b6033546001600160a01b031633146106195760405162461bcd60e51b815260206004820181905260248201527f4f776e61626c653a2063616c6c6572206973206e6f7420746865206f776e6572604482015260640161034b565b603380546001600160a01b038381166001600160a01b0319831681179093556040519116919082907f8be0079c531659141344cd1fd0a4f28419497f9722a3daafe3b4186f6b6457e090600090a35050565b6000610a89836001600160a01b038416610c08565b6000610a89836001600160a01b038416610c57565b606081600001805480602002602001604051908101604052809291908181526020018280548015610bfc57602002820191906000526020600020905b815481526020019060010190808311610be8575b50505050509050919050565b6000818152600183016020526040812054610c4f575081546001818101845560008481526020808220909301849055845484825282860190935260409020919091556102e2565b5060006102e2565b60008181526001830160205260408120548015610d40576000610c7b600183610ec4565b8554909150600090610c8f90600190610ec4565b9050818114610cf4576000866000018281548110610caf57610caf610ef9565b9060005260206000200154905080876000018481548110610cd257610cd2610ef9565b6000918252602080832090910192909255918252600188019052604090208390555b8554869080610d0557610d05610f0f565b6001900381819060005260206000200160009055905585600101600086815260200190815260200160002060009055600193505050506102e2565b60009150506102e2565b6020808252825182820181905260009190848201906040850190845b81811015610d8b5783516001600160a01b031683529284019291840191600101610d66565b50909695505050505050565b80356001600160a01b0381168114610dae57600080fd5b919050565b600060208284031215610dc557600080fd5b610a8982610d97565b60008060408385031215610de157600080fd5b610dea83610d97565b946020939093013593505050565b600060208284031215610e0a57600080fd5b5035919050565b600080600060608486031215610e2657600080fd5b610e2f84610d97565b9250610e3d60208501610d97565b9150604084013590509250925092565b600060208083528351808285015260005b81811015610e7a57858101830151858201604001528201610e5e565b506000604082860101526040601f19601f8301168501019250505092915050565b634e487b7160e01b600052601160045260246000fd5b808201808211156102e2576102e2610e9b565b818103818111156102e2576102e2610e9b565b600060208284031215610ee957600080fd5b81518015158114610a8957600080fd5b634e487b7160e01b600052603260045260246000fd5b634e487b7160e01b600052603160045260246000fdfea264697066735822122024d74902aa2d8666e7d8bd605d99f47b9c01af40d1014068003be583a496c76e64736f6c63430008120033",
  "devdoc": {
    "events": {
      "Initialized(uint8)": {
        "details": "Triggered when the contract has been initialized or reinitialized."
      },
      "Paused(address)": {
        "details": "Emitted when the pause is triggered by `account`."
      },
      "Unpaused(address)": {
        "details": "Emitted when the pause is lifted by `account`."
      }
    },
    "kind": "dev",
    "methods": {
      "owner()": {
        "details": "Returns the address of the current owner."
      },
      "paused()": {
        "details": "Returns true if the contract is paused, and false otherwise."
      },
      "renounceOwnership()": {
        "details": "Leaves the contract without owner. It will not be possible to call `onlyOwner` functions anymore. Can only be called by the current owner. NOTE: Renouncing ownership will leave the contract without an owner, thereby removing any functionality that is only available to the owner."
      },
      "transferOwnership(address)": {
        "details": "Transfers ownership of the contract to a new account (`newOwner`). Can only be called by the current owner."
      }
    },
    "version": 1
  },
  "userdoc": {
    "kind": "user",
    "methods": {},
    "version": 1
  },
  "storageLayout": {
    "storage": [
      {
        "astId": 138,
        "contract": "contracts/ClearDeposit.sol:ClearDeposit",
        "label": "_initialized",
        "offset": 0,
        "slot": "0",
        "type": "t_uint8"
      },
      {
        "astId": 141,
        "contract": "contracts/ClearDeposit.sol:ClearDeposit",
        "label": "_initializing",
        "offset": 1,
        "slot": "0",
        "type": "t_bool"
      },
      {
        "astId": 830,
        "contract": "contracts/ClearDeposit.sol:ClearDeposit",
        "label": "__gap",
        "offset": 0,
        "slot": "1",
        "type": "t_array(t_uint256)50_storage"
      },
      {
        "astId": 10,
        "contract": "contracts/ClearDeposit.sol:ClearDeposit",
        "label": "_owner",
        "offset": 0,
        "slot": "51",
        "type": "t_address"
      },
      {
        "astId": 130,
        "contract": "contracts/ClearDeposit.sol:ClearDeposit",
        "label": "__gap",
        "offset": 0,
        "slot": "52",
        "type": "t_array(t_uint256)49_storage"
      },
      {
        "astId": 321,
        "contract": "contracts/ClearDeposit.sol:ClearDeposit",
        "label": "_paused",
        "offset": 0,
        "slot": "101",
        "type": "t_bool"
      },
      {
        "astId": 426,
        "contract": "contracts/ClearDeposit.sol:ClearDeposit",
        "label": "__gap",
        "offset": 0,
        "slot": "102",
        "type": "t_array(t_uint256)49_storage"
      },
      {
        "astId": 1465,
        "contract": "contracts/ClearDeposit.sol:ClearDeposit",
        "label": "token",
        "offset": 0,
        "slot": "151",
        "type": "t_contract(IERC20Upgradeable)505"
      },
      {
        "astId": 1469,
        "contract": "contracts/ClearDeposit.sol:ClearDeposit",
        "label": "deposits",
        "offset": 0,
        "slot": "152",
        "type": "t_mapping(t_address,t_uint256)"
      },
      {
        "astId": 1473,
        "contract": "contracts/ClearDeposit.sol:ClearDeposit",
        "label": "lockedBalanceOf",
        "offset": 0,
        "slot": "153",
        "type": "t_mapping(t_address,t_uint256)"
      },
      {
        "astId": 1476,
        "contract": "contracts/ClearDeposit.sol:ClearDeposit",
        "label": "_managerWhitelist",
        "offset": 0,
        "slot": "154",
        "type": "t_struct(AddressSet)1157_storage"
      }
    ],
    "types": {
      "t_address": {
        "encoding": "inplace",
        "label": "address",
        "numberOfBytes": "20"
      },
      "t_array(t_bytes32)dyn_storage": {
        "base": "t_bytes32",
        "encoding": "dynamic_array",
        "label": "bytes32[]",
        "numberOfBytes": "32"
      },
      "t_array(t_uint256)49_storage": {
        "base": "t_uint256",
        "encoding": "inplace",
        "label": "uint256[49]",
        "numberOfBytes": "1568"
      },
      "t_array(t_uint256)50_storage": {
        "base": "t_uint256",
        "encoding": "inplace",
        "label": "uint256[50]",
        "numberOfBytes": "1600"
      },
      "t_bool": {
        "encoding": "inplace",
        "label": "bool",
        "numberOfBytes": "1"
      },
      "t_bytes32": {
        "encoding": "inplace",
        "label": "bytes32",
        "numberOfBytes": "32"
      },
      "t_contract(IERC20Upgradeable)505": {
        "encoding": "inplace",
        "label": "contract IERC20Upgradeable",
        "numberOfBytes": "20"
      },
      "t_mapping(t_address,t_uint256)": {
        "encoding": "mapping",
        "key": "t_address",
        "label": "mapping(address => uint256)",
        "numberOfBytes": "32",
        "value": "t_uint256"
      },
      "t_mapping(t_bytes32,t_uint256)": {
        "encoding": "mapping",
        "key": "t_bytes32",
        "label": "mapping(bytes32 => uint256)",
        "numberOfBytes": "32",
        "value": "t_uint256"
      },
      "t_struct(AddressSet)1157_storage": {
        "encoding": "inplace",
        "label": "struct EnumerableSetUpgradeable.AddressSet",
        "members": [
          {
            "astId": 1156,
            "contract": "contracts/ClearDeposit.sol:ClearDeposit",
            "label": "_inner",
            "offset": 0,
            "slot": "0",
            "type": "t_struct(Set)842_storage"
          }
        ],
        "numberOfBytes": "64"
      },
      "t_struct(Set)842_storage": {
        "encoding": "inplace",
        "label": "struct EnumerableSetUpgradeable.Set",
        "members": [
          {
            "astId": 837,
            "contract": "contracts/ClearDeposit.sol:ClearDeposit",
            "label": "_values",
            "offset": 0,
            "slot": "0",
            "type": "t_array(t_bytes32)dyn_storage"
          },
          {
            "astId": 841,
            "contract": "contracts/ClearDeposit.sol:ClearDeposit",
            "label": "_indexes",
            "offset": 0,
            "slot": "1",
            "type": "t_mapping(t_bytes32,t_uint256)"
          }
        ],
        "numberOfBytes": "64"
      },
      "t_uint256": {
        "encoding": "inplace",
        "label": "uint256",
        "numberOfBytes": "32"
      },
      "t_uint8": {
        "encoding": "inplace",
        "label": "uint8",
        "numberOfBytes": "1"
      }
    }
  }
}