{
  "address": "0x850094aD3606F43495A7A45EddB084cdBcf2CA4A",
  "abi": [
    {
      "anonymous": false,
      "inputs": [
        {
          "indexed": false,
          "internalType": "uint8",
          "name": "version",
          "type": "uint8"
        }
      ],
      "name": "Initialized",
      "type": "event"
    },
    {
      "anonymous": false,
      "inputs": [
        {
          "indexed": true,
          "internalType": "address",
          "name": "previousOwner",
          "type": "address"
        },
        {
          "indexed": true,
          "internalType": "address",
          "name": "newOwner",
          "type": "address"
        }
      ],
      "name": "OwnershipTransferred",
      "type": "event"
    },
    {
      "anonymous": false,
      "inputs": [
        {
          "indexed": false,
          "internalType": "address",
          "name": "account",
          "type": "address"
        }
      ],
      "name": "Paused",
      "type": "event"
    },
    {
      "anonymous": false,
      "inputs": [
        {
          "indexed": false,
          "internalType": "address",
          "name": "account",
          "type": "address"
        }
      ],
      "name": "Unpaused",
      "type": "event"
    },
    {
      "inputs": [
        {
          "internalType": "address",
          "name": "account",
          "type": "address"
        }
      ],
      "name": "addManagerToWhitelist",
      "outputs": [],
      "stateMutability": "nonpayable",
      "type": "function"
    },
    {
      "inputs": [
        {
          "internalType": "address",
          "name": "from",
          "type": "address"
        },
        {
          "internalType": "address",
          "name": "to",
          "type": "address"
        },
        {
          "internalType": "uint256",
          "name": "amount",
          "type": "uint256"
        }
      ],
      "name": "appealTransfer",
      "outputs": [],
      "stateMutability": "nonpayable",
      "type": "function"
    },
    {
      "inputs": [
        {
          "internalType": "uint256",
          "name": "amount",
          "type": "uint256"
        }
      ],
      "name": "deposit",
      "outputs": [],
      "stateMutability": "nonpayable",
      "type": "function"
    },
    {
      "inputs": [
        {
          "internalType": "address",
          "name": "",
          "type": "address"
        }
      ],
      "name": "depositOf",
      "outputs": [
        {
          "internalType": "uint256",
          "name": "",
          "type": "uint256"
        }
      ],
      "stateMutability": "view",
      "type": "function"
    },
    {
      "inputs": [
        {
          "internalType": "address",
          "name": "_token",
          "type": "address"
        }
      ],
      "name": "initialize",
      "outputs": [],
      "stateMutability": "nonpayable",
      "type": "function"
    },
    {
      "inputs": [
        {
          "internalType": "address",
          "name": "account",
          "type": "address"
        }
      ],
      "name": "isManagerWhitelisted",
      "outputs": [
        {
          "internalType": "bool",
          "name": "",
          "type": "bool"
        }
      ],
      "stateMutability": "view",
      "type": "function"
    },
    {
      "inputs": [],
      "name": "owner",
      "outputs": [
        {
          "internalType": "address",
          "name": "",
          "type": "address"
        }
      ],
      "stateMutability": "view",
      "type": "function"
    },
    {
      "inputs": [],
      "name": "pause",
      "outputs": [],
      "stateMutability": "nonpayable",
      "type": "function"
    },
    {
      "inputs": [],
      "name": "paused",
      "outputs": [
        {
          "internalType": "bool",
          "name": "",
          "type": "bool"
        }
      ],
      "stateMutability": "view",
      "type": "function"
    },
    {
      "inputs": [
        {
          "internalType": "address",
          "name": "account",
          "type": "address"
        }
      ],
      "name": "removeManagerFromWhitelist",
      "outputs": [],
      "stateMutability": "nonpayable",
      "type": "function"
    },
    {
      "inputs": [],
      "name": "renounceOwnership",
      "outputs": [],
      "stateMutability": "nonpayable",
      "type": "function"
    },
    {
      "inputs": [],
      "name": "token",
      "outputs": [
        {
          "internalType": "contract IERC20Upgradeable",
          "name": "",
          "type": "address"
        }
      ],
      "stateMutability": "view",
      "type": "function"
    },
    {
      "inputs": [
        {
          "internalType": "address",
          "name": "newOwner",
          "type": "address"
        }
      ],
      "name": "transferOwnership",
      "outputs": [],
      "stateMutability": "nonpayable",
      "type": "function"
    },
    {
      "inputs": [],
      "name": "unpause",
      "outputs": [],
      "stateMutability": "nonpayable",
      "type": "function"
    },
    {
      "inputs": [],
      "name": "whitelistedManagers",
      "outputs": [
        {
          "internalType": "address[]",
          "name": "",
          "type": "address[]"
        }
      ],
      "stateMutability": "view",
      "type": "function"
    },
    {
      "inputs": [
        {
          "internalType": "address",
          "name": "depositor",
          "type": "address"
        },
        {
          "internalType": "uint256",
          "name": "amount",
          "type": "uint256"
        }
      ],
      "name": "withdrawToAccount",
      "outputs": [],
      "stateMutability": "nonpayable",
      "type": "function"
    }
  ],
  "transactionHash": "0xc0ebe5d36dd0e57a3f663a28d38a0910465297fc63f87d14668467c7b130a1c2",
  "args": [],
  "numDeployments": 1,
  "solcInputHash": "5be3a8363c5b4888203fe95bb0985a59",
  "bytecode": "0x608060405234801561001057600080fd5b50610f96806100206000396000f3fe608060405234801561001057600080fd5b50600436106101005760003560e01c80638da5cb5b11610097578063c4d66de811610066578063c4d66de81461020a578063e64b2afa1461021d578063f2fde38b14610230578063fc0c546a1461024357600080fd5b80638da5cb5b146101ac578063b6b55f25146101d1578063b8d57ada146101e4578063c2b1a472146101f757600080fd5b80633f4ba83a116100d35780633f4ba83a146101895780635c975abb14610191578063715018a61461019c5780638456cb59146101a457600080fd5b80630b289d27146101055780631e101a3d1461012357806323e3fbd5146101465780633efe134f14610174575b600080fd5b61010d610256565b60405161011a9190610d3a565b60405180910390f35b610136610131366004610da3565b610267565b604051901515815260200161011a565b610166610154366004610da3565b60986020526000908152604090205481565b60405190815260200161011a565b610187610182366004610dbe565b610289565b005b610187610403565b60655460ff16610136565b610187610415565b610187610427565b6033546001600160a01b03165b6040516001600160a01b03909116815260200161011a565b6101876101df366004610dfa565b610437565b6101876101f2366004610da3565b6104e2565b610187610205366004610e13565b610543565b610187610218366004610da3565b6106b3565b61018761022b366004610da3565b6107f3565b61018761023e366004610da3565b61085a565b6097546101b9906001600160a01b031681565b606061026260996108d3565b905090565b6001600160a01b0381166000908152609a602052604081205415155b92915050565b61029233610267565b6040518060400160405280600f81526020016e1393d517d5d2125511531254d51151608a1b815250906102e15760405162461bcd60e51b81526004016102d89190610e3d565b60405180910390fd5b506102ea6108e7565b60986000846001600160a01b03166001600160a01b03168152602001908152602001600020548111156040518060400160405280600e81526020016d1253959053125117d05353d5539560921b815250906103585760405162461bcd60e51b81526004016102d89190610e3d565b506001600160a01b03831660009081526098602052604081208054839290610381908490610ea1565b909155505060975460405163a9059cbb60e01b81526001600160a01b038481166004830152602482018490529091169063a9059cbb906044016020604051808303816000875af11580156103d9573d6000803e3d6000fd5b505050506040513d601f19601f820116820180604052508101906103fd9190610eb4565b50505050565b61040b61092d565b610413610987565b565b61041d61092d565b61041360006109d9565b61042f61092d565b610413610a2b565b61043f6108e7565b6097546040516323b872dd60e01b8152336004820152306024820152604481018390526001600160a01b03909116906323b872dd906064016020604051808303816000875af1158015610496573d6000803e3d6000fd5b505050506040513d601f19601f820116820180604052508101906104ba9190610eb4565b5033600090815260986020526040812080548392906104da908490610ed6565b909155505050565b6104ea61092d565b6104f5609982610a68565b604051806040016040528060138152602001721053149150511657d5d2125511531254d51151606a1b8152509061053f5760405162461bcd60e51b81526004016102d89190610e3d565b5050565b61054c33610267565b6040518060400160405280600f81526020016e1393d517d5d2125511531254d51151608a1b815250906105925760405162461bcd60e51b81526004016102d89190610e3d565b5061059b6108e7565b60986000836001600160a01b03166001600160a01b03168152602001908152602001600020548111156040518060400160405280600e81526020016d1253959053125117d05353d5539560921b815250906106095760405162461bcd60e51b81526004016102d89190610e3d565b506001600160a01b03821660009081526098602052604081208054839290610632908490610ea1565b909155505060975460405163a9059cbb60e01b81526001600160a01b038481166004830152602482018490529091169063a9059cbb906044016020604051808303816000875af115801561068a573d6000803e3d6000fd5b505050506040513d601f19601f820116820180604052508101906106ae9190610eb4565b505050565b600054610100900460ff16158080156106d35750600054600160ff909116105b806106ed5750303b1580156106ed575060005460ff166001145b6107505760405162461bcd60e51b815260206004820152602e60248201527f496e697469616c697a61626c653a20636f6e747261637420697320616c72656160448201526d191e481a5b9a5d1a585b1a5e995960921b60648201526084016102d8565b6000805460ff191660011790558015610773576000805461ff0019166101001790555b61077b610a7d565b610783610aac565b609780546001600160a01b0319166001600160a01b0384161790556107a9609933610a68565b50801561053f576000805461ff0019169055604051600181527f7f26b83ff96e1f2b6a682f133852f6798a09c465da95921460cefb38474024989060200160405180910390a15050565b6107fb61092d565b610806609982610adb565b6040518060400160405280601781526020017f414c52454144595f4e4f545f57484954454c49535445440000000000000000008152509061053f5760405162461bcd60e51b81526004016102d89190610e3d565b61086261092d565b6001600160a01b0381166108c75760405162461bcd60e51b815260206004820152602660248201527f4f776e61626c653a206e6577206f776e657220697320746865207a65726f206160448201526564647265737360d01b60648201526084016102d8565b6108d0816109d9565b50565b606060006108e083610af0565b9392505050565b60655460ff16156104135760405162461bcd60e51b815260206004820152601060248201526f14185d5cd8589b194e881c185d5cd95960821b60448201526064016102d8565b6033546001600160a01b031633146104135760405162461bcd60e51b815260206004820181905260248201527f4f776e61626c653a2063616c6c6572206973206e6f7420746865206f776e657260448201526064016102d8565b61098f610b4c565b6065805460ff191690557f5db9ee0a495bf2e6ff9c91a7834c1ba4fdd244a5e8aa4e537bd38aeae4b073aa335b6040516001600160a01b03909116815260200160405180910390a1565b603380546001600160a01b038381166001600160a01b0319831681179093556040519116919082907f8be0079c531659141344cd1fd0a4f28419497f9722a3daafe3b4186f6b6457e090600090a35050565b610a336108e7565b6065805460ff191660011790557f62e78cea01bee320cd4e420270b5ea74000d11b0c9f74754ebdbfc544b05a2586109bc3390565b60006108e0836001600160a01b038416610b95565b600054610100900460ff16610aa45760405162461bcd60e51b81526004016102d890610ee9565b610413610be4565b600054610100900460ff16610ad35760405162461bcd60e51b81526004016102d890610ee9565b610413610c14565b60006108e0836001600160a01b038416610c47565b606081600001805480602002602001604051908101604052809291908181526020018280548015610b4057602002820191906000526020600020905b815481526020019060010190808311610b2c575b50505050509050919050565b60655460ff166104135760405162461bcd60e51b815260206004820152601460248201527314185d5cd8589b194e881b9bdd081c185d5cd95960621b60448201526064016102d8565b6000818152600183016020526040812054610bdc57508154600181810184556000848152602080822090930184905584548482528286019093526040902091909155610283565b506000610283565b600054610100900460ff16610c0b5760405162461bcd60e51b81526004016102d890610ee9565b610413336109d9565b600054610100900460ff16610c3b5760405162461bcd60e51b81526004016102d890610ee9565b6065805460ff19169055565b60008181526001830160205260408120548015610d30576000610c6b600183610ea1565b8554909150600090610c7f90600190610ea1565b9050818114610ce4576000866000018281548110610c9f57610c9f610f34565b9060005260206000200154905080876000018481548110610cc257610cc2610f34565b6000918252602080832090910192909255918252600188019052604090208390555b8554869080610cf557610cf5610f4a565b600190038181906000526020600020016000905590558560010160008681526020019081526020016000206000905560019350505050610283565b6000915050610283565b6020808252825182820181905260009190848201906040850190845b81811015610d7b5783516001600160a01b031683529284019291840191600101610d56565b50909695505050505050565b80356001600160a01b0381168114610d9e57600080fd5b919050565b600060208284031215610db557600080fd5b6108e082610d87565b600080600060608486031215610dd357600080fd5b610ddc84610d87565b9250610dea60208501610d87565b9150604084013590509250925092565b600060208284031215610e0c57600080fd5b5035919050565b60008060408385031215610e2657600080fd5b610e2f83610d87565b946020939093013593505050565b600060208083528351808285015260005b81811015610e6a57858101830151858201604001528201610e4e565b506000604082860101526040601f19601f8301168501019250505092915050565b634e487b7160e01b600052601160045260246000fd5b8181038181111561028357610283610e8b565b600060208284031215610ec657600080fd5b815180151581146108e057600080fd5b8082018082111561028357610283610e8b565b6020808252602b908201527f496e697469616c697a61626c653a20636f6e7472616374206973206e6f74206960408201526a6e697469616c697a696e6760a81b606082015260800190565b634e487b7160e01b600052603260045260246000fd5b634e487b7160e01b600052603160045260246000fdfea264697066735822122038dc484b3a40fe08a3e68f95da4be715a8c108319f3b9e7c6385821bbab8f45e64736f6c63430008120033",
  "devdoc": {
    "events": {
      "Initialized(uint8)": {
        "details": "Triggered when the contract has been initialized or reinitialized."
      },
      "Paused(address)": {
        "details": "Emitted when the pause is triggered by `account`."
      },
      "Unpaused(address)": {
        "details": "Emitted when the pause is lifted by `account`."
      }
    },
    "kind": "dev",
    "methods": {
      "owner()": {
        "details": "Returns the address of the current owner."
      },
      "paused()": {
        "details": "Returns true if the contract is paused, and false otherwise."
      },
      "renounceOwnership()": {
        "details": "Leaves the contract without owner. It will not be possible to call `onlyOwner` functions anymore. Can only be called by the current owner. NOTE: Renouncing ownership will leave the contract without an owner, thereby removing any functionality that is only available to the owner."
      },
      "transferOwnership(address)": {
        "details": "Transfers ownership of the contract to a new account (`newOwner`). Can only be called by the current owner."
      }
    },
    "version": 1
  },
  "userdoc": {
    "kind": "user",
    "methods": {},
    "version": 1
  },
  "storageLayout": {
    "storage": [
      {
        "astId": 138,
        "contract": "contracts/ClearDeposit.sol:ClearDeposit",
        "label": "_initialized",
        "offset": 0,
        "slot": "0",
        "type": "t_uint8"
      },
      {
        "astId": 141,
        "contract": "contracts/ClearDeposit.sol:ClearDeposit",
        "label": "_initializing",
        "offset": 1,
        "slot": "0",
        "type": "t_bool"
      },
      {
        "astId": 830,
        "contract": "contracts/ClearDeposit.sol:ClearDeposit",
        "label": "__gap",
        "offset": 0,
        "slot": "1",
        "type": "t_array(t_uint256)50_storage"
      },
      {
        "astId": 10,
        "contract": "contracts/ClearDeposit.sol:ClearDeposit",
        "label": "_owner",
        "offset": 0,
        "slot": "51",
        "type": "t_address"
      },
      {
        "astId": 130,
        "contract": "contracts/ClearDeposit.sol:ClearDeposit",
        "label": "__gap",
        "offset": 0,
        "slot": "52",
        "type": "t_array(t_uint256)49_storage"
      },
      {
        "astId": 321,
        "contract": "contracts/ClearDeposit.sol:ClearDeposit",
        "label": "_paused",
        "offset": 0,
        "slot": "101",
        "type": "t_bool"
      },
      {
        "astId": 426,
        "contract": "contracts/ClearDeposit.sol:ClearDeposit",
        "label": "__gap",
        "offset": 0,
        "slot": "102",
        "type": "t_array(t_uint256)49_storage"
      },
      {
        "astId": 2177,
        "contract": "contracts/ClearDeposit.sol:ClearDeposit",
        "label": "token",
        "offset": 0,
        "slot": "151",
        "type": "t_contract(IERC20Upgradeable)505"
      },
      {
        "astId": 2181,
        "contract": "contracts/ClearDeposit.sol:ClearDeposit",
        "label": "depositOf",
        "offset": 0,
        "slot": "152",
        "type": "t_mapping(t_address,t_uint256)"
      },
      {
        "astId": 2184,
        "contract": "contracts/ClearDeposit.sol:ClearDeposit",
        "label": "_managerWhitelist",
        "offset": 0,
        "slot": "153",
        "type": "t_struct(AddressSet)1157_storage"
      }
    ],
    "types": {
      "t_address": {
        "encoding": "inplace",
        "label": "address",
        "numberOfBytes": "20"
      },
      "t_array(t_bytes32)dyn_storage": {
        "base": "t_bytes32",
        "encoding": "dynamic_array",
        "label": "bytes32[]",
        "numberOfBytes": "32"
      },
      "t_array(t_uint256)49_storage": {
        "base": "t_uint256",
        "encoding": "inplace",
        "label": "uint256[49]",
        "numberOfBytes": "1568"
      },
      "t_array(t_uint256)50_storage": {
        "base": "t_uint256",
        "encoding": "inplace",
        "label": "uint256[50]",
        "numberOfBytes": "1600"
      },
      "t_bool": {
        "encoding": "inplace",
        "label": "bool",
        "numberOfBytes": "1"
      },
      "t_bytes32": {
        "encoding": "inplace",
        "label": "bytes32",
        "numberOfBytes": "32"
      },
      "t_contract(IERC20Upgradeable)505": {
        "encoding": "inplace",
        "label": "contract IERC20Upgradeable",
        "numberOfBytes": "20"
      },
      "t_mapping(t_address,t_uint256)": {
        "encoding": "mapping",
        "key": "t_address",
        "label": "mapping(address => uint256)",
        "numberOfBytes": "32",
        "value": "t_uint256"
      },
      "t_mapping(t_bytes32,t_uint256)": {
        "encoding": "mapping",
        "key": "t_bytes32",
        "label": "mapping(bytes32 => uint256)",
        "numberOfBytes": "32",
        "value": "t_uint256"
      },
      "t_struct(AddressSet)1157_storage": {
        "encoding": "inplace",
        "label": "struct EnumerableSetUpgradeable.AddressSet",
        "members": [
          {
            "astId": 1156,
            "contract": "contracts/ClearDeposit.sol:ClearDeposit",
            "label": "_inner",
            "offset": 0,
            "slot": "0",
            "type": "t_struct(Set)842_storage"
          }
        ],
        "numberOfBytes": "64"
      },
      "t_struct(Set)842_storage": {
        "encoding": "inplace",
        "label": "struct EnumerableSetUpgradeable.Set",
        "members": [
          {
            "astId": 837,
            "contract": "contracts/ClearDeposit.sol:ClearDeposit",
            "label": "_values",
            "offset": 0,
            "slot": "0",
            "type": "t_array(t_bytes32)dyn_storage"
          },
          {
            "astId": 841,
            "contract": "contracts/ClearDeposit.sol:ClearDeposit",
            "label": "_indexes",
            "offset": 0,
            "slot": "1",
            "type": "t_mapping(t_bytes32,t_uint256)"
          }
        ],
        "numberOfBytes": "64"
      },
      "t_uint256": {
        "encoding": "inplace",
        "label": "uint256",
        "numberOfBytes": "32"
      },
      "t_uint8": {
        "encoding": "inplace",
        "label": "uint8",
        "numberOfBytes": "1"
      }
    }
  }
}