{
  "address": "0x0C5F625E4e5cE1f1eB59691c11e4eAB0b4865eFe",
  "abi": [
    {
      "anonymous": false,
      "inputs": [
        {
          "indexed": false,
          "internalType": "uint8",
          "name": "version",
          "type": "uint8"
        }
      ],
      "name": "Initialized",
      "type": "event"
    },
    {
      "anonymous": false,
      "inputs": [
        {
          "indexed": true,
          "internalType": "address",
          "name": "previousOwner",
          "type": "address"
        },
        {
          "indexed": true,
          "internalType": "address",
          "name": "newOwner",
          "type": "address"
        }
      ],
      "name": "OwnershipTransferred",
      "type": "event"
    },
    {
      "anonymous": false,
      "inputs": [
        {
          "indexed": false,
          "internalType": "address",
          "name": "account",
          "type": "address"
        }
      ],
      "name": "Paused",
      "type": "event"
    },
    {
      "anonymous": false,
      "inputs": [
        {
          "indexed": false,
          "internalType": "address",
          "name": "account",
          "type": "address"
        }
      ],
      "name": "Unpaused",
      "type": "event"
    },
    {
      "inputs": [
        {
          "internalType": "address",
          "name": "account",
          "type": "address"
        }
      ],
      "name": "addManagerToWhitelist",
      "outputs": [],
      "stateMutability": "nonpayable",
      "type": "function"
    },
    {
      "inputs": [
        {
          "internalType": "address",
          "name": "from",
          "type": "address"
        },
        {
          "internalType": "address",
          "name": "to",
          "type": "address"
        },
        {
          "internalType": "uint256",
          "name": "amount",
          "type": "uint256"
        }
      ],
      "name": "appealTransfer",
      "outputs": [],
      "stateMutability": "nonpayable",
      "type": "function"
    },
    {
      "inputs": [
        {
          "internalType": "uint256",
          "name": "amount",
          "type": "uint256"
        }
      ],
      "name": "deposit",
      "outputs": [],
      "stateMutability": "nonpayable",
      "type": "function"
    },
    {
      "inputs": [
        {
          "internalType": "address",
          "name": "",
          "type": "address"
        }
      ],
      "name": "depositOf",
      "outputs": [
        {
          "internalType": "uint256",
          "name": "",
          "type": "uint256"
        }
      ],
      "stateMutability": "view",
      "type": "function"
    },
    {
      "inputs": [
        {
          "internalType": "address",
          "name": "_token",
          "type": "address"
        }
      ],
      "name": "initialize",
      "outputs": [],
      "stateMutability": "nonpayable",
      "type": "function"
    },
    {
      "inputs": [
        {
          "internalType": "address",
          "name": "account",
          "type": "address"
        }
      ],
      "name": "isManagerWhitelisted",
      "outputs": [
        {
          "internalType": "bool",
          "name": "",
          "type": "bool"
        }
      ],
      "stateMutability": "view",
      "type": "function"
    },
    {
      "inputs": [],
      "name": "owner",
      "outputs": [
        {
          "internalType": "address",
          "name": "",
          "type": "address"
        }
      ],
      "stateMutability": "view",
      "type": "function"
    },
    {
      "inputs": [],
      "name": "paused",
      "outputs": [
        {
          "internalType": "bool",
          "name": "",
          "type": "bool"
        }
      ],
      "stateMutability": "view",
      "type": "function"
    },
    {
      "inputs": [
        {
          "internalType": "address",
          "name": "account",
          "type": "address"
        }
      ],
      "name": "removeManagerFromWhitelist",
      "outputs": [],
      "stateMutability": "nonpayable",
      "type": "function"
    },
    {
      "inputs": [],
      "name": "renounceOwnership",
      "outputs": [],
      "stateMutability": "nonpayable",
      "type": "function"
    },
    {
      "inputs": [],
      "name": "token",
      "outputs": [
        {
          "internalType": "contract IERC20Upgradeable",
          "name": "",
          "type": "address"
        }
      ],
      "stateMutability": "view",
      "type": "function"
    },
    {
      "inputs": [
        {
          "internalType": "address",
          "name": "newOwner",
          "type": "address"
        }
      ],
      "name": "transferOwnership",
      "outputs": [],
      "stateMutability": "nonpayable",
      "type": "function"
    },
    {
      "inputs": [],
      "name": "whitelistedManagers",
      "outputs": [
        {
          "internalType": "address[]",
          "name": "",
          "type": "address[]"
        }
      ],
      "stateMutability": "view",
      "type": "function"
    },
    {
      "inputs": [
        {
          "internalType": "address",
          "name": "depositor",
          "type": "address"
        },
        {
          "internalType": "uint256",
          "name": "amount",
          "type": "uint256"
        }
      ],
      "name": "withdrawToAccount",
      "outputs": [],
      "stateMutability": "nonpayable",
      "type": "function"
    }
  ],
  "transactionHash": "0x46f718f3e7b82560ae3ac571389657ab0a92a969c92f387ccfdacca41fe0d029",
  "args": [],
  "numDeployments": 1,
  "solcInputHash": "c0409e552dd80a44e50d1abb1141671f",
  "bytecode": "0x608060405234801561001057600080fd5b50610d5c806100206000396000f3fe608060405234801561001057600080fd5b50600436106100ea5760003560e01c8063b6b55f251161008c578063c4d66de811610066578063c4d66de8146101e4578063e64b2afa146101f7578063f2fde38b1461020a578063fc0c546a1461021d57600080fd5b8063b6b55f25146101ab578063b8d57ada146101be578063c2b1a472146101d157600080fd5b80633efe134f116100c85780633efe134f1461015e5780635c975abb14610173578063715018a61461017e5780638da5cb5b1461018657600080fd5b80630b289d27146100ef5780631e101a3d1461010d57806323e3fbd514610130575b600080fd5b6100f7610230565b6040516101049190610b4b565b60405180910390f35b61012061011b366004610bb4565b610241565b6040519015158152602001610104565b61015061013e366004610bb4565b60986020526000908152604090205481565b604051908152602001610104565b61017161016c366004610bcf565b610263565b005b60655460ff16610120565b6101716103dd565b6033546001600160a01b03165b6040516001600160a01b039091168152602001610104565b6101716101b9366004610c0b565b6103f1565b6101716101cc366004610bb4565b61049c565b6101716101df366004610c24565b6104fd565b6101716101f2366004610bb4565b61066d565b610171610205366004610bb4565b61079d565b610171610218366004610bb4565b610804565b609754610193906001600160a01b031681565b606061023c609961087d565b905090565b6001600160a01b0381166000908152609a602052604081205415155b92915050565b61026c33610241565b6040518060400160405280600f81526020016e1393d517d5d2125511531254d51151608a1b815250906102bb5760405162461bcd60e51b81526004016102b29190610c4e565b60405180910390fd5b506102c4610891565b60986000846001600160a01b03166001600160a01b03168152602001908152602001600020548111156040518060400160405280600e81526020016d1253959053125117d05353d5539560921b815250906103325760405162461bcd60e51b81526004016102b29190610c4e565b506001600160a01b0383166000908152609860205260408120805483929061035b908490610cb2565b909155505060975460405163a9059cbb60e01b81526001600160a01b038481166004830152602482018490529091169063a9059cbb906044016020604051808303816000875af11580156103b3573d6000803e3d6000fd5b505050506040513d601f19601f820116820180604052508101906103d79190610cc5565b50505050565b6103e56108d7565b6103ef6000610931565b565b6103f9610891565b6097546040516323b872dd60e01b8152336004820152306024820152604481018390526001600160a01b03909116906323b872dd906064016020604051808303816000875af1158015610450573d6000803e3d6000fd5b505050506040513d601f19601f820116820180604052508101906104749190610cc5565b503360009081526098602052604081208054839290610494908490610ce7565b909155505050565b6104a46108d7565b6104af609982610983565b604051806040016040528060138152602001721053149150511657d5d2125511531254d51151606a1b815250906104f95760405162461bcd60e51b81526004016102b29190610c4e565b5050565b61050633610241565b6040518060400160405280600f81526020016e1393d517d5d2125511531254d51151608a1b8152509061054c5760405162461bcd60e51b81526004016102b29190610c4e565b50610555610891565b60986000836001600160a01b03166001600160a01b03168152602001908152602001600020548111156040518060400160405280600e81526020016d1253959053125117d05353d5539560921b815250906105c35760405162461bcd60e51b81526004016102b29190610c4e565b506001600160a01b038216600090815260986020526040812080548392906105ec908490610cb2565b909155505060975460405163a9059cbb60e01b81526001600160a01b038481166004830152602482018490529091169063a9059cbb906044016020604051808303816000875af1158015610644573d6000803e3d6000fd5b505050506040513d601f19601f820116820180604052508101906106689190610cc5565b505050565b600054610100900460ff161580801561068d5750600054600160ff909116105b806106a75750303b1580156106a7575060005460ff166001145b61070a5760405162461bcd60e51b815260206004820152602e60248201527f496e697469616c697a61626c653a20636f6e747261637420697320616c72656160448201526d191e481a5b9a5d1a585b1a5e995960921b60648201526084016102b2565b6000805460ff19166001179055801561072d576000805461ff0019166101001790555b609780546001600160a01b0319166001600160a01b038416179055610753609933610983565b5080156104f9576000805461ff0019169055604051600181527f7f26b83ff96e1f2b6a682f133852f6798a09c465da95921460cefb38474024989060200160405180910390a15050565b6107a56108d7565b6107b0609982610998565b6040518060400160405280601781526020017f414c52454144595f4e4f545f57484954454c4953544544000000000000000000815250906104f95760405162461bcd60e51b81526004016102b29190610c4e565b61080c6108d7565b6001600160a01b0381166108715760405162461bcd60e51b815260206004820152602660248201527f4f776e61626c653a206e6577206f776e657220697320746865207a65726f206160448201526564647265737360d01b60648201526084016102b2565b61087a81610931565b50565b6060600061088a836109ad565b9392505050565b60655460ff16156103ef5760405162461bcd60e51b815260206004820152601060248201526f14185d5cd8589b194e881c185d5cd95960821b60448201526064016102b2565b6033546001600160a01b031633146103ef5760405162461bcd60e51b815260206004820181905260248201527f4f776e61626c653a2063616c6c6572206973206e6f7420746865206f776e657260448201526064016102b2565b603380546001600160a01b038381166001600160a01b0319831681179093556040519116919082907f8be0079c531659141344cd1fd0a4f28419497f9722a3daafe3b4186f6b6457e090600090a35050565b600061088a836001600160a01b038416610a09565b600061088a836001600160a01b038416610a58565b6060816000018054806020026020016040519081016040528092919081815260200182805480156109fd57602002820191906000526020600020905b8154815260200190600101908083116109e9575b50505050509050919050565b6000818152600183016020526040812054610a505750815460018181018455600084815260208082209093018490558454848252828601909352604090209190915561025d565b50600061025d565b60008181526001830160205260408120548015610b41576000610a7c600183610cb2565b8554909150600090610a9090600190610cb2565b9050818114610af5576000866000018281548110610ab057610ab0610cfa565b9060005260206000200154905080876000018481548110610ad357610ad3610cfa565b6000918252602080832090910192909255918252600188019052604090208390555b8554869080610b0657610b06610d10565b60019003818190600052602060002001600090559055856001016000868152602001908152602001600020600090556001935050505061025d565b600091505061025d565b6020808252825182820181905260009190848201906040850190845b81811015610b8c5783516001600160a01b031683529284019291840191600101610b67565b50909695505050505050565b80356001600160a01b0381168114610baf57600080fd5b919050565b600060208284031215610bc657600080fd5b61088a82610b98565b600080600060608486031215610be457600080fd5b610bed84610b98565b9250610bfb60208501610b98565b9150604084013590509250925092565b600060208284031215610c1d57600080fd5b5035919050565b60008060408385031215610c3757600080fd5b610c4083610b98565b946020939093013593505050565b600060208083528351808285015260005b81811015610c7b57858101830151858201604001528201610c5f565b506000604082860101526040601f19601f8301168501019250505092915050565b634e487b7160e01b600052601160045260246000fd5b8181038181111561025d5761025d610c9c565b600060208284031215610cd757600080fd5b8151801515811461088a57600080fd5b8082018082111561025d5761025d610c9c565b634e487b7160e01b600052603260045260246000fd5b634e487b7160e01b600052603160045260246000fdfea2646970667358221220851463ce14c3fe7e72e02e6feed70bb519f9b217222c795f11fc60c98c1a877d64736f6c63430008120033",
  "devdoc": {
    "events": {
      "Initialized(uint8)": {
        "details": "Triggered when the contract has been initialized or reinitialized."
      },
      "Paused(address)": {
        "details": "Emitted when the pause is triggered by `account`."
      },
      "Unpaused(address)": {
        "details": "Emitted when the pause is lifted by `account`."
      }
    },
    "kind": "dev",
    "methods": {
      "owner()": {
        "details": "Returns the address of the current owner."
      },
      "paused()": {
        "details": "Returns true if the contract is paused, and false otherwise."
      },
      "renounceOwnership()": {
        "details": "Leaves the contract without owner. It will not be possible to call `onlyOwner` functions anymore. Can only be called by the current owner. NOTE: Renouncing ownership will leave the contract without an owner, thereby removing any functionality that is only available to the owner."
      },
      "transferOwnership(address)": {
        "details": "Transfers ownership of the contract to a new account (`newOwner`). Can only be called by the current owner."
      }
    },
    "version": 1
  },
  "userdoc": {
    "kind": "user",
    "methods": {},
    "version": 1
  },
  "storageLayout": {
    "storage": [
      {
        "astId": 138,
        "contract": "contracts/ClearDeposit.sol:ClearDeposit",
        "label": "_initialized",
        "offset": 0,
        "slot": "0",
        "type": "t_uint8"
      },
      {
        "astId": 141,
        "contract": "contracts/ClearDeposit.sol:ClearDeposit",
        "label": "_initializing",
        "offset": 1,
        "slot": "0",
        "type": "t_bool"
      },
      {
        "astId": 830,
        "contract": "contracts/ClearDeposit.sol:ClearDeposit",
        "label": "__gap",
        "offset": 0,
        "slot": "1",
        "type": "t_array(t_uint256)50_storage"
      },
      {
        "astId": 10,
        "contract": "contracts/ClearDeposit.sol:ClearDeposit",
        "label": "_owner",
        "offset": 0,
        "slot": "51",
        "type": "t_address"
      },
      {
        "astId": 130,
        "contract": "contracts/ClearDeposit.sol:ClearDeposit",
        "label": "__gap",
        "offset": 0,
        "slot": "52",
        "type": "t_array(t_uint256)49_storage"
      },
      {
        "astId": 321,
        "contract": "contracts/ClearDeposit.sol:ClearDeposit",
        "label": "_paused",
        "offset": 0,
        "slot": "101",
        "type": "t_bool"
      },
      {
        "astId": 426,
        "contract": "contracts/ClearDeposit.sol:ClearDeposit",
        "label": "__gap",
        "offset": 0,
        "slot": "102",
        "type": "t_array(t_uint256)49_storage"
      },
      {
        "astId": 1465,
        "contract": "contracts/ClearDeposit.sol:ClearDeposit",
        "label": "token",
        "offset": 0,
        "slot": "151",
        "type": "t_contract(IERC20Upgradeable)505"
      },
      {
        "astId": 1469,
        "contract": "contracts/ClearDeposit.sol:ClearDeposit",
        "label": "depositOf",
        "offset": 0,
        "slot": "152",
        "type": "t_mapping(t_address,t_uint256)"
      },
      {
        "astId": 1472,
        "contract": "contracts/ClearDeposit.sol:ClearDeposit",
        "label": "_managerWhitelist",
        "offset": 0,
        "slot": "153",
        "type": "t_struct(AddressSet)1157_storage"
      }
    ],
    "types": {
      "t_address": {
        "encoding": "inplace",
        "label": "address",
        "numberOfBytes": "20"
      },
      "t_array(t_bytes32)dyn_storage": {
        "base": "t_bytes32",
        "encoding": "dynamic_array",
        "label": "bytes32[]",
        "numberOfBytes": "32"
      },
      "t_array(t_uint256)49_storage": {
        "base": "t_uint256",
        "encoding": "inplace",
        "label": "uint256[49]",
        "numberOfBytes": "1568"
      },
      "t_array(t_uint256)50_storage": {
        "base": "t_uint256",
        "encoding": "inplace",
        "label": "uint256[50]",
        "numberOfBytes": "1600"
      },
      "t_bool": {
        "encoding": "inplace",
        "label": "bool",
        "numberOfBytes": "1"
      },
      "t_bytes32": {
        "encoding": "inplace",
        "label": "bytes32",
        "numberOfBytes": "32"
      },
      "t_contract(IERC20Upgradeable)505": {
        "encoding": "inplace",
        "label": "contract IERC20Upgradeable",
        "numberOfBytes": "20"
      },
      "t_mapping(t_address,t_uint256)": {
        "encoding": "mapping",
        "key": "t_address",
        "label": "mapping(address => uint256)",
        "numberOfBytes": "32",
        "value": "t_uint256"
      },
      "t_mapping(t_bytes32,t_uint256)": {
        "encoding": "mapping",
        "key": "t_bytes32",
        "label": "mapping(bytes32 => uint256)",
        "numberOfBytes": "32",
        "value": "t_uint256"
      },
      "t_struct(AddressSet)1157_storage": {
        "encoding": "inplace",
        "label": "struct EnumerableSetUpgradeable.AddressSet",
        "members": [
          {
            "astId": 1156,
            "contract": "contracts/ClearDeposit.sol:ClearDeposit",
            "label": "_inner",
            "offset": 0,
            "slot": "0",
            "type": "t_struct(Set)842_storage"
          }
        ],
        "numberOfBytes": "64"
      },
      "t_struct(Set)842_storage": {
        "encoding": "inplace",
        "label": "struct EnumerableSetUpgradeable.Set",
        "members": [
          {
            "astId": 837,
            "contract": "contracts/ClearDeposit.sol:ClearDeposit",
            "label": "_values",
            "offset": 0,
            "slot": "0",
            "type": "t_array(t_bytes32)dyn_storage"
          },
          {
            "astId": 841,
            "contract": "contracts/ClearDeposit.sol:ClearDeposit",
            "label": "_indexes",
            "offset": 0,
            "slot": "1",
            "type": "t_mapping(t_bytes32,t_uint256)"
          }
        ],
        "numberOfBytes": "64"
      },
      "t_uint256": {
        "encoding": "inplace",
        "label": "uint256",
        "numberOfBytes": "32"
      },
      "t_uint8": {
        "encoding": "inplace",
        "label": "uint8",
        "numberOfBytes": "1"
      }
    }
  }
}